{
	"data": {
		"bytecode": {
			"linkReferences": {},
			"object": "608060405234801561001057600080fd5b5061011d806100206000396000f3fe6080604052600436106043576000357c0100000000000000000000000000000000000000000000000000000000900480633fa4f2451460485780638dfa4363146070575b600080fd5b348015605357600080fd5b50605a60b1565b6040518082815260200191505060405180910390f35b348015607b57600080fd5b5060af60048036036040811015609057600080fd5b81019080803590602001909291908035906020019092919050505060b7565b005b60005481565b60bf828260c9565b6000819055505050565b6000808211151560d857600080fd5b6000828481151560e457fe5b049050809150509291505056fea165627a7a72305820ff69b5bc235097e981d30b3f71bdd9562a98be4b936451b702225b77d2c596e50029",
			"opcodes": "PUSH1 0x80 PUSH1 0x40 MSTORE CALLVALUE DUP1 ISZERO PUSH2 0x10 JUMPI PUSH1 0x0 DUP1 REVERT JUMPDEST POP PUSH2 0x11D DUP1 PUSH2 0x20 PUSH1 0x0 CODECOPY PUSH1 0x0 RETURN INVALID PUSH1 0x80 PUSH1 0x40 MSTORE PUSH1 0x4 CALLDATASIZE LT PUSH1 0x43 JUMPI PUSH1 0x0 CALLDATALOAD PUSH29 0x100000000000000000000000000000000000000000000000000000000 SWAP1 DIV DUP1 PUSH4 0x3FA4F245 EQ PUSH1 0x48 JUMPI DUP1 PUSH4 0x8DFA4363 EQ PUSH1 0x70 JUMPI JUMPDEST PUSH1 0x0 DUP1 REVERT JUMPDEST CALLVALUE DUP1 ISZERO PUSH1 0x53 JUMPI PUSH1 0x0 DUP1 REVERT JUMPDEST POP PUSH1 0x5A PUSH1 0xB1 JUMP JUMPDEST PUSH1 0x40 MLOAD DUP1 DUP3 DUP2 MSTORE PUSH1 0x20 ADD SWAP2 POP POP PUSH1 0x40 MLOAD DUP1 SWAP2 SUB SWAP1 RETURN JUMPDEST CALLVALUE DUP1 ISZERO PUSH1 0x7B JUMPI PUSH1 0x0 DUP1 REVERT JUMPDEST POP PUSH1 0xAF PUSH1 0x4 DUP1 CALLDATASIZE SUB PUSH1 0x40 DUP2 LT ISZERO PUSH1 0x90 JUMPI PUSH1 0x0 DUP1 REVERT JUMPDEST DUP2 ADD SWAP1 DUP1 DUP1 CALLDATALOAD SWAP1 PUSH1 0x20 ADD SWAP1 SWAP3 SWAP2 SWAP1 DUP1 CALLDATALOAD SWAP1 PUSH1 0x20 ADD SWAP1 SWAP3 SWAP2 SWAP1 POP POP POP PUSH1 0xB7 JUMP JUMPDEST STOP JUMPDEST PUSH1 0x0 SLOAD DUP2 JUMP JUMPDEST PUSH1 0xBF DUP3 DUP3 PUSH1 0xC9 JUMP JUMPDEST PUSH1 0x0 DUP2 SWAP1 SSTORE POP POP POP JUMP JUMPDEST PUSH1 0x0 DUP1 DUP3 GT ISZERO ISZERO PUSH1 0xD8 JUMPI PUSH1 0x0 DUP1 REVERT JUMPDEST PUSH1 0x0 DUP3 DUP5 DUP2 ISZERO ISZERO PUSH1 0xE4 JUMPI INVALID JUMPDEST DIV SWAP1 POP DUP1 SWAP2 POP POP SWAP3 SWAP2 POP POP JUMP INVALID LOG1 PUSH6 0x627A7A723058 KECCAK256 SELFDESTRUCT PUSH10 0xB5BC235097E981D30B3F PUSH18 0xBDD9562A98BE4B936451B702225B77D2C596 0xe5 STOP 0x29 "
		},
		"gasEstimates": {
			"creation": {
				"codeDepositCost": "57000",
				"executionCost": "105",
				"totalCost": "57105"
			},
			"external": {
				"calculate(uint256,uint256)": "20397",
				"value()": "388"
			}
		},
		"methodIdentifiers": {
			"calculate(uint256,uint256)": "8dfa4363",
			"value()": "3fa4f245"
		}
	},
	"abi": [
		{
			"constant": true,
			"inputs": [],
			"name": "value",
			"outputs": [
				{
					"name": "",
					"type": "uint256"
				}
			],
			"payable": false,
			"stateMutability": "view",
			"type": "function"
		},
		{
			"constant": false,
			"inputs": [
				{
					"name": "_value1",
					"type": "uint256"
				},
				{
					"name": "_value2",
					"type": "uint256"
				}
			],
			"name": "calculate",
			"outputs": [],
			"payable": false,
			"stateMutability": "nonpayable",
			"type": "function"
		}
	]
}